{
  "contractName": "SemesterContract",
  "abi": [
    {
      "anonymous": false,
      "inputs": [
        {
          "indexed": false,
          "internalType": "address",
          "name": "recipient",
          "type": "address"
        },
        {
          "indexed": false,
          "internalType": "uint256",
          "name": "id",
          "type": "uint256"
        }
      ],
      "name": "AddSemester",
      "type": "event"
    },
    {
      "inputs": [
        {
          "internalType": "string",
          "name": "studentId",
          "type": "string"
        },
        {
          "internalType": "string",
          "name": "sessionName",
          "type": "string"
        },
        {
          "internalType": "string",
          "name": "year",
          "type": "string"
        },
        {
          "internalType": "string[]",
          "name": "courseNames",
          "type": "string[]"
        },
        {
          "internalType": "string[]",
          "name": "cgpas",
          "type": "string[]"
        }
      ],
      "name": "addSemester",
      "outputs": [],
      "stateMutability": "nonpayable",
      "type": "function"
    },
    {
      "inputs": [],
      "name": "getSemstersByAUser",
      "outputs": [
        {
          "components": [
            {
              "internalType": "uint256",
              "name": "id",
              "type": "uint256"
            },
            {
              "internalType": "string",
              "name": "studentId",
              "type": "string"
            },
            {
              "internalType": "string",
              "name": "sessionName",
              "type": "string"
            },
            {
              "internalType": "string",
              "name": "year",
              "type": "string"
            },
            {
              "internalType": "string[]",
              "name": "courseNames",
              "type": "string[]"
            },
            {
              "internalType": "string[]",
              "name": "cgpas",
              "type": "string[]"
            }
          ],
          "internalType": "struct SemesterContract.SemesterDetails[]",
          "name": "",
          "type": "tuple[]"
        }
      ],
      "stateMutability": "view",
      "type": "function",
      "constant": true
    }
  ],
  "bytecode": "0x608060405234801561001057600080fd5b50610fd1806100206000396000f3fe608060405234801561001057600080fd5b50600436106100365760003560e01c80632f191f971461003b5780633ed578f714610059575b600080fd5b610043610075565b6040516100509190610ac4565b60405180910390f35b610073600480360381019061006e9190610d15565b6104bb565b005b60606000808054905067ffffffffffffffff81111561009757610096610b04565b5b6040519080825280602002602001820160405280156100d057816020015b6100bd61064c565b8152602001906001900390816100b55790505b50905060005b6000805490508110156104b357600081815481106100f7576100f6610e1c565b5b90600052602060002090600602016040518060c00160405290816000820154815260200160018201805461012a90610e7a565b80601f016020809104026020016040519081016040528092919081815260200182805461015690610e7a565b80156101a35780601f10610178576101008083540402835291602001916101a3565b820191906000526020600020905b81548152906001019060200180831161018657829003601f168201915b505050505081526020016002820180546101bc90610e7a565b80601f01602080910402602001604051908101604052809291908181526020018280546101e890610e7a565b80156102355780601f1061020a57610100808354040283529160200191610235565b820191906000526020600020905b81548152906001019060200180831161021857829003601f168201915b5050505050815260200160038201805461024e90610e7a565b80601f016020809104026020016040519081016040528092919081815260200182805461027a90610e7a565b80156102c75780601f1061029c576101008083540402835291602001916102c7565b820191906000526020600020905b8154815290600101906020018083116102aa57829003601f168201915b5050505050815260200160048201805480602002602001604051908101604052809291908181526020016000905b828210156103a157838290600052602060002001805461031490610e7a565b80601f016020809104026020016040519081016040528092919081815260200182805461034090610e7a565b801561038d5780601f106103625761010080835404028352916020019161038d565b820191906000526020600020905b81548152906001019060200180831161037057829003601f168201915b5050505050815260200190600101906102f5565b50505050815260200160058201805480602002602001604051908101604052809291908181526020016000905b8282101561047a5783829060005260206000200180546103ed90610e7a565b80601f016020809104026020016040519081016040528092919081815260200182805461041990610e7a565b80156104665780601f1061043b57610100808354040283529160200191610466565b820191906000526020600020905b81548152906001019060200180831161044957829003601f168201915b5050505050815260200190600101906103ce565b505050508152505082828151811061049557610494610e1c565b5b602002602001018190525080806104ab90610eda565b9150506100d6565b508091505090565b60008080549050905060006040518060c00160405280838152602001888152602001878152602001868152602001858152602001848152509080600181540180825580915050600190039060005260206000209060060201600090919091909150600082015181600001556020820151816001019080519060200190610542929190610682565b50604082015181600201908051906020019061055f929190610682565b50606082015181600301908051906020019061057c929190610682565b506080820151816004019080519060200190610599929190610708565b5060a08201518160050190805190602001906105b6929190610708565b505050336001600083815260200190815260200160002060006101000a81548173ffffffffffffffffffffffffffffffffffffffff021916908373ffffffffffffffffffffffffffffffffffffffff1602179055507ff79223fcd627a199cf40d22ea783dbe989e8e661557f8a913405243e4c16140d338260405161063c929190610f72565b60405180910390a1505050505050565b6040518060c001604052806000815260200160608152602001606081526020016060815260200160608152602001606081525090565b82805461068e90610e7a565b90600052602060002090601f0160209004810192826106b057600085556106f7565b82601f106106c957805160ff19168380011785556106f7565b828001600101855582156106f7579182015b828111156106f65782518255916020019190600101906106db565b5b5090506107049190610768565b5090565b828054828255906000526020600020908101928215610757579160200282015b82811115610756578251829080519060200190610746929190610682565b5091602001919060010190610728565b5b5090506107649190610785565b5090565b5b80821115610781576000816000905550600101610769565b5090565b5b808211156107a5576000818161079c91906107a9565b50600101610786565b5090565b5080546107b590610e7a565b6000825580601f106107c757506107e6565b601f0160209004906000526020600020908101906107e59190610768565b5b50565b600081519050919050565b600082825260208201905092915050565b6000819050602082019050919050565b6000819050919050565b61082881610815565b82525050565b600081519050919050565b600082825260208201905092915050565b60005b8381101561086857808201518184015260208101905061084d565b83811115610877576000848401525b50505050565b6000601f19601f8301169050919050565b60006108998261082e565b6108a38185610839565b93506108b381856020860161084a565b6108bc8161087d565b840191505092915050565b600081519050919050565b600082825260208201905092915050565b6000819050602082019050919050565b60006108ff838361088e565b905092915050565b6000602082019050919050565b600061091f826108c7565b61092981856108d2565b93508360208202850161093b856108e3565b8060005b85811015610977578484038952815161095885826108f3565b945061096383610907565b925060208a0199505060018101905061093f565b50829750879550505050505092915050565b600060c0830160008301516109a1600086018261081f565b50602083015184820360208601526109b9828261088e565b915050604083015184820360408601526109d3828261088e565b915050606083015184820360608601526109ed828261088e565b91505060808301518482036080860152610a078282610914565b91505060a083015184820360a0860152610a218282610914565b9150508091505092915050565b6000610a3a8383610989565b905092915050565b6000602082019050919050565b6000610a5a826107e9565b610a6481856107f4565b935083602082028501610a7685610805565b8060005b85811015610ab25784840389528151610a938582610a2e565b9450610a9e83610a42565b925060208a01995050600181019050610a7a565b50829750879550505050505092915050565b60006020820190508181036000830152610ade8184610a4f565b905092915050565b6000604051905090565b600080fd5b600080fd5b600080fd5b600080fd5b7f4e487b7100000000000000000000000000000000000000000000000000000000600052604160045260246000fd5b610b3c8261087d565b810181811067ffffffffffffffff82111715610b5b57610b5a610b04565b5b80604052505050565b6000610b6e610ae6565b9050610b7a8282610b33565b919050565b600067ffffffffffffffff821115610b9a57610b99610b04565b5b610ba38261087d565b9050602081019050919050565b82818337600083830152505050565b6000610bd2610bcd84610b7f565b610b64565b905082815260208101848484011115610bee57610bed610aff565b5b610bf9848285610bb0565b509392505050565b600082601f830112610c1657610c15610afa565b5b8135610c26848260208601610bbf565b91505092915050565b600067ffffffffffffffff821115610c4a57610c49610b04565b5b602082029050602081019050919050565b600080fd5b6000610c73610c6e84610c2f565b610b64565b90508083825260208201905060208402830185811115610c9657610c95610c5b565b5b835b81811015610cdd57803567ffffffffffffffff811115610cbb57610cba610afa565b5b808601610cc88982610c01565b85526020850194505050602081019050610c98565b5050509392505050565b600082601f830112610cfc57610cfb610afa565b5b8135610d0c848260208601610c60565b91505092915050565b600080600080600060a08688031215610d3157610d30610af0565b5b600086013567ffffffffffffffff811115610d4f57610d4e610af5565b5b610d5b88828901610c01565b955050602086013567ffffffffffffffff811115610d7c57610d7b610af5565b5b610d8888828901610c01565b945050604086013567ffffffffffffffff811115610da957610da8610af5565b5b610db588828901610c01565b935050606086013567ffffffffffffffff811115610dd657610dd5610af5565b5b610de288828901610ce7565b925050608086013567ffffffffffffffff811115610e0357610e02610af5565b5b610e0f88828901610ce7565b9150509295509295909350565b7f4e487b7100000000000000000000000000000000000000000000000000000000600052603260045260246000fd5b7f4e487b7100000000000000000000000000000000000000000000000000000000600052602260045260246000fd5b60006002820490506001821680610e9257607f821691505b602082108103610ea557610ea4610e4b565b5b50919050565b7f4e487b7100000000000000000000000000000000000000000000000000000000600052601160045260246000fd5b6000610ee582610815565b91507fffffffffffffffffffffffffffffffffffffffffffffffffffffffffffffffff8203610f1757610f16610eab565b5b600182019050919050565b600073ffffffffffffffffffffffffffffffffffffffff82169050919050565b6000610f4d82610f22565b9050919050565b610f5d81610f42565b82525050565b610f6c81610815565b82525050565b6000604082019050610f876000830185610f54565b610f946020830184610f63565b939250505056fea26469706673582212207efc3a6e6d48f1cd4891f26c225d37466d0b5af42b083143a77b102e666c3f7264736f6c634300080d0033",
  "immutableReferences": {},
  "source": "// SPDX-License-Identifier: MIT\npragma solidity ^0.8.13;\n\ncontract SemesterContract {\n  \n  event AddSemester(address recipient, uint id);\n\n  struct SemesterDetails {\n      uint id; \n      string studentId;\n      string sessionName;\n      string year;\n      string[] courseNames;\n      string[] cgpas;\n  }\n\n  SemesterDetails[] semestersDetails;\n\n  mapping(uint256 => address) semesterToStudent;\n\n\n  function addSemester(string memory studentId, string memory sessionName, string memory year, string[] memory courseNames, string[] memory cgpas) external {\n\n    uint id = semestersDetails.length;\n\n    semestersDetails.push(SemesterDetails(id, studentId, sessionName, year, courseNames, cgpas));\n\n    semesterToStudent[id] = msg.sender;\n\n    emit AddSemester(msg.sender, id);\n  }\n\n  function getSemstersByAUser() external view returns (SemesterDetails [] memory) {\n\n    SemesterDetails[] memory temp = new SemesterDetails[](semestersDetails.length);\n\n    for(uint i=0; i<semestersDetails.length; i++) {\n      temp[i] = semestersDetails[i];\n    }\n\n    return temp;\n  }\n\n}\n ",
  "sourcePath": "G:\\0001 Project\\project\\ETH Course Tracker\\backend\\contracts\\SemesterContract.sol",
  "compiler": {
    "name": "solc",
    "version": "0.8.13+commit.abaa5c0e.Emscripten.clang"
  },
  "schemaVersion": "3.4.7",
  "updatedAt": "2022-12-13T18:41:29.739Z",
  "networkType": "ethereum",
  "devdoc": {
    "kind": "dev",
    "methods": {},
    "version": 1
  },
  "userdoc": {
    "kind": "user",
    "methods": {},
    "version": 1
  }
}