{
  "contractName": "SemesterContract",
  "abi": [
    {
      "anonymous": false,
      "inputs": [
        {
          "indexed": false,
          "internalType": "address",
          "name": "recipient",
          "type": "address"
        },
        {
          "indexed": false,
          "internalType": "uint256",
          "name": "id",
          "type": "uint256"
        }
      ],
      "name": "AddSemester",
      "type": "event"
    },
    {
      "inputs": [
        {
          "internalType": "string",
          "name": "sessionName",
          "type": "string"
        },
        {
          "internalType": "string",
          "name": "year",
          "type": "string"
        },
        {
          "internalType": "string[]",
          "name": "courseNames",
          "type": "string[]"
        },
        {
          "internalType": "string[]",
          "name": "cgpas",
          "type": "string[]"
        }
      ],
      "name": "addSemester",
      "outputs": [],
      "stateMutability": "nonpayable",
      "type": "function"
    },
    {
      "inputs": [],
      "name": "getSemstersByAUser",
      "outputs": [
        {
          "components": [
            {
              "internalType": "uint256",
              "name": "id",
              "type": "uint256"
            },
            {
              "internalType": "string",
              "name": "sessionName",
              "type": "string"
            },
            {
              "internalType": "string",
              "name": "year",
              "type": "string"
            },
            {
              "internalType": "string[]",
              "name": "courseNames",
              "type": "string[]"
            },
            {
              "internalType": "string[]",
              "name": "cgpa",
              "type": "string[]"
            }
          ],
          "internalType": "struct SemesterContract.SemesterDetails[]",
          "name": "",
          "type": "tuple[]"
        }
      ],
      "stateMutability": "view",
      "type": "function",
      "constant": true
    }
  ],
  "bytecode": "0x608060405234801561001057600080fd5b50610ff0806100206000396000f3fe608060405234801561001057600080fd5b50600436106100365760003560e01c80632f191f971461003b5780637c30c29814610059575b600080fd5b610043610075565b6040516100509190610b13565b60405180910390f35b610073600480360381019061006e9190610d64565b61054f565b005b60606000808054905067ffffffffffffffff81111561009757610096610b53565b5b6040519080825280602002602001820160405280156100d057816020015b6100bd6106bc565b8152602001906001900390816100b55790505b5090506000805b600080549050811015610495573373ffffffffffffffffffffffffffffffffffffffff166001600083815260200190815260200160002060009054906101000a900473ffffffffffffffffffffffffffffffffffffffff1673ffffffffffffffffffffffffffffffffffffffff1603610482576000818154811061015e5761015d610e3b565b5b90600052602060002090600502016040518060a00160405290816000820154815260200160018201805461019190610e99565b80601f01602080910402602001604051908101604052809291908181526020018280546101bd90610e99565b801561020a5780601f106101df5761010080835404028352916020019161020a565b820191906000526020600020905b8154815290600101906020018083116101ed57829003601f168201915b5050505050815260200160028201805461022390610e99565b80601f016020809104026020016040519081016040528092919081815260200182805461024f90610e99565b801561029c5780601f106102715761010080835404028352916020019161029c565b820191906000526020600020905b81548152906001019060200180831161027f57829003601f168201915b5050505050815260200160038201805480602002602001604051908101604052809291908181526020016000905b828210156103765783829060005260206000200180546102e990610e99565b80601f016020809104026020016040519081016040528092919081815260200182805461031590610e99565b80156103625780601f1061033757610100808354040283529160200191610362565b820191906000526020600020905b81548152906001019060200180831161034557829003601f168201915b5050505050815260200190600101906102ca565b50505050815260200160048201805480602002602001604051908101604052809291908181526020016000905b8282101561044f5783829060005260206000200180546103c290610e99565b80601f01602080910402602001604051908101604052809291908181526020018280546103ee90610e99565b801561043b5780601f106104105761010080835404028352916020019161043b565b820191906000526020600020905b81548152906001019060200180831161041e57829003601f168201915b5050505050815260200190600101906103a3565b505050508152505083838061046390610ef9565b94508151811061047657610475610e3b565b5b60200260200101819052505b808061048d90610ef9565b9150506100d7565b5060008167ffffffffffffffff8111156104b2576104b1610b53565b5b6040519080825280602002602001820160405280156104eb57816020015b6104d86106bc565b8152602001906001900390816104d05790505b50905060005b828110156105455783818151811061050c5761050b610e3b565b5b602002602001015182828151811061052757610526610e3b565b5b6020026020010181905250808061053d90610ef9565b9150506104f1565b5080935050505090565b60008080549050905060006040518060a001604052808381526020018781526020018681526020018581526020018481525090806001815401808255809150506001900390600052602060002090600502016000909190919091506000820151816000015560208201518160010190805190602001906105d09291906106eb565b5060408201518160020190805190602001906105ed9291906106eb565b50606082015181600301908051906020019061060a929190610771565b506080820151816004019080519060200190610627929190610771565b505050336001600083815260200190815260200160002060006101000a81548173ffffffffffffffffffffffffffffffffffffffff021916908373ffffffffffffffffffffffffffffffffffffffff1602179055507ff79223fcd627a199cf40d22ea783dbe989e8e661557f8a913405243e4c16140d33826040516106ad929190610f91565b60405180910390a15050505050565b6040518060a0016040528060008152602001606081526020016060815260200160608152602001606081525090565b8280546106f790610e99565b90600052602060002090601f0160209004810192826107195760008555610760565b82601f1061073257805160ff1916838001178555610760565b82800160010185558215610760579182015b8281111561075f578251825591602001919060010190610744565b5b50905061076d91906107d1565b5090565b8280548282559060005260206000209081019282156107c0579160200282015b828111156107bf5782518290805190602001906107af9291906106eb565b5091602001919060010190610791565b5b5090506107cd91906107ee565b5090565b5b808211156107ea5760008160009055506001016107d2565b5090565b5b8082111561080e57600081816108059190610812565b506001016107ef565b5090565b50805461081e90610e99565b6000825580601f10610830575061084f565b601f01602090049060005260206000209081019061084e91906107d1565b5b50565b600081519050919050565b600082825260208201905092915050565b6000819050602082019050919050565b6000819050919050565b6108918161087e565b82525050565b600081519050919050565b600082825260208201905092915050565b60005b838110156108d15780820151818401526020810190506108b6565b838111156108e0576000848401525b50505050565b6000601f19601f8301169050919050565b600061090282610897565b61090c81856108a2565b935061091c8185602086016108b3565b610925816108e6565b840191505092915050565b600081519050919050565b600082825260208201905092915050565b6000819050602082019050919050565b600061096883836108f7565b905092915050565b6000602082019050919050565b600061098882610930565b610992818561093b565b9350836020820285016109a48561094c565b8060005b858110156109e057848403895281516109c1858261095c565b94506109cc83610970565b925060208a019950506001810190506109a8565b50829750879550505050505092915050565b600060a083016000830151610a0a6000860182610888565b5060208301518482036020860152610a2282826108f7565b91505060408301518482036040860152610a3c82826108f7565b91505060608301518482036060860152610a56828261097d565b91505060808301518482036080860152610a70828261097d565b9150508091505092915050565b6000610a8983836109f2565b905092915050565b6000602082019050919050565b6000610aa982610852565b610ab3818561085d565b935083602082028501610ac58561086e565b8060005b85811015610b015784840389528151610ae28582610a7d565b9450610aed83610a91565b925060208a01995050600181019050610ac9565b50829750879550505050505092915050565b60006020820190508181036000830152610b2d8184610a9e565b905092915050565b6000604051905090565b600080fd5b600080fd5b600080fd5b600080fd5b7f4e487b7100000000000000000000000000000000000000000000000000000000600052604160045260246000fd5b610b8b826108e6565b810181811067ffffffffffffffff82111715610baa57610ba9610b53565b5b80604052505050565b6000610bbd610b35565b9050610bc98282610b82565b919050565b600067ffffffffffffffff821115610be957610be8610b53565b5b610bf2826108e6565b9050602081019050919050565b82818337600083830152505050565b6000610c21610c1c84610bce565b610bb3565b905082815260208101848484011115610c3d57610c3c610b4e565b5b610c48848285610bff565b509392505050565b600082601f830112610c6557610c64610b49565b5b8135610c75848260208601610c0e565b91505092915050565b600067ffffffffffffffff821115610c9957610c98610b53565b5b602082029050602081019050919050565b600080fd5b6000610cc2610cbd84610c7e565b610bb3565b90508083825260208201905060208402830185811115610ce557610ce4610caa565b5b835b81811015610d2c57803567ffffffffffffffff811115610d0a57610d09610b49565b5b808601610d178982610c50565b85526020850194505050602081019050610ce7565b5050509392505050565b600082601f830112610d4b57610d4a610b49565b5b8135610d5b848260208601610caf565b91505092915050565b60008060008060808587031215610d7e57610d7d610b3f565b5b600085013567ffffffffffffffff811115610d9c57610d9b610b44565b5b610da887828801610c50565b945050602085013567ffffffffffffffff811115610dc957610dc8610b44565b5b610dd587828801610c50565b935050604085013567ffffffffffffffff811115610df657610df5610b44565b5b610e0287828801610d36565b925050606085013567ffffffffffffffff811115610e2357610e22610b44565b5b610e2f87828801610d36565b91505092959194509250565b7f4e487b7100000000000000000000000000000000000000000000000000000000600052603260045260246000fd5b7f4e487b7100000000000000000000000000000000000000000000000000000000600052602260045260246000fd5b60006002820490506001821680610eb157607f821691505b602082108103610ec457610ec3610e6a565b5b50919050565b7f4e487b7100000000000000000000000000000000000000000000000000000000600052601160045260246000fd5b6000610f048261087e565b91507fffffffffffffffffffffffffffffffffffffffffffffffffffffffffffffffff8203610f3657610f35610eca565b5b600182019050919050565b600073ffffffffffffffffffffffffffffffffffffffff82169050919050565b6000610f6c82610f41565b9050919050565b610f7c81610f61565b82525050565b610f8b8161087e565b82525050565b6000604082019050610fa66000830185610f73565b610fb36020830184610f82565b939250505056fea2646970667358221220202dad4f8c150430fd9aa082202609823e419c8820f3542021a21073ccaad71164736f6c634300080d0033",
  "immutableReferences": {},
  "source": "// SPDX-License-Identifier: MIT\npragma solidity ^0.8.13;\n\ncontract SemesterContract {\n  \n  event AddSemester(address recipient, uint id);\n\n  struct SemesterDetails {\n      uint id; \n      string sessionName;\n      string year;\n      string[] courseNames;\n      string[] cgpa;\n  }\n\n  SemesterDetails[] semestersDetails;\n\n  mapping(uint256 => address) semesterToStudent;\n\n\n  function addSemester(string memory sessionName, string memory year, string[] memory courseNames, string[] memory cgpas) external {\n\n    uint id = semestersDetails.length;\n\n    semestersDetails.push(SemesterDetails(id, sessionName, year, courseNames, cgpas));\n\n    semesterToStudent[id] = msg.sender;\n\n    emit AddSemester(msg.sender, id);\n  }\n\n  function getSemstersByAUser() external view returns (SemesterDetails [] memory) {\n\n    SemesterDetails[] memory temp = new SemesterDetails[](semestersDetails.length);\n\n    uint counter = 0;\n\n    for(uint i=0; i<semestersDetails.length; i++) {\n      if(semesterToStudent[i] == msg.sender){\n        temp[counter++] = semestersDetails[i];\n      }\n    }\n\n    SemesterDetails[] memory result = new SemesterDetails[](counter);\n\n    for(uint i=0; i<counter; i++) {\n      result[i] = temp[i];\n    }\n\n    return result;\n  }\n\n}\n ",
  "sourcePath": "G:\\0001 Project\\project\\ETH Course Tracker\\backend\\contracts\\SemesterContract.sol",
  "compiler": {
    "name": "solc",
    "version": "0.8.13+commit.abaa5c0e.Emscripten.clang"
  },
  "schemaVersion": "3.4.7",
  "updatedAt": "2022-12-11T08:54:04.559Z",
  "networkType": "ethereum",
  "devdoc": {
    "kind": "dev",
    "methods": {},
    "version": 1
  },
  "userdoc": {
    "kind": "user",
    "methods": {},
    "version": 1
  }
}